:100000000C9443030C946B030C946B030C946B03E0
:100010000C946B030C946B030C946B030C946B03A8
:100020000C946B030C946B030C946B030C946B0398
:100030000C946B030C946B030C946B030C946B0388
:100040000C94A8130C946B030C9476130C9450131B
:100050000C946B030C946B030C946B030C946B0368
:100060000C94F2130C946B0300000000003E5B4FF5
:100070005B3E3E6B4F6B3E1C3E7C3E1C183C7E3C08
:10008000181C577D571C1C5E7F5E1C00183C180016
:10009000FFE7C3E7FF0018241800FFE7DBE7FF30A6
:1000A000483A060E2629792926407F050507407F14
:1000B00005253F5A3CE73C5A7F3E1C1C08081C1C87
:1000C0003E7F14227F22145F5F005F5F06097F017D
:1000D0007F006689956A606060606094A2FFA29468
:1000E00008047E040810207E201008082A1C080836
:1000F0001C2A08081E101010100C1E0C1E0C303884
:100100003E3830060E3E0E06000000000000005F84
:1001100000000007000700147F147F14242A7F2AA0
:100120001223130864623649562050000807030062
:10013000001C2241000041221C002A1C7F1C2A08AE
:10014000083E080800807030000808080808000011
:1001500060600020100804023E5149453E00427F85
:10016000400072494949462141494D331814127FD4
:100170001027454545393C4A494931412111090774
:100180003649494936464949291E000014000000F5
:1001900040340000000814224114141414140041C7
:1001A00022140802015909063E415D594E7C121184
:1001B000127C7F494949363E414141227F414141BC
:1001C0003E7F494949417F090909013E4141517337
:1001D0007F0808087F00417F41002040413F017FA8
:1001E000081422417F404040407F021C027F7F0470
:1001F00008107F3E4141413E7F090909063E4151B9
:10020000215E7F09192946264949493203017F01A8
:10021000033F4040403F1F2040201F3F4038403FA9
:10022000631408146303047804036159494D4300BF
:100230007F4141410204081020004141417F0402F6
:10024000010204404040404000030708002054548D
:1002500078407F284444383844444428384444286B
:100260007F385454541800087E090218A4A49C78BE
:100270007F0804047800447D40002040403D007F1A
:100280001028440000417F40007C047804787C08FA
:100290000404783844444438FC18242418182424CE
:1002A00018FC7C08040408485454542404043F44B3
:1002B000243C4040207C1C2040201C3C4030403CE2
:1002C00044281028444C9090907C4464544C440042
:1002D00008364100000077000000413608000201A6
:1002E0000204023C2623263C1EA1A161123A404092
:1002F000207A38545455592155557941225454780F
:1003000042215554784020545579400C1E527212A7
:100310003955555559395454545939555454580030
:1003200000457C410002457D420001457C407D1234
:1003300011127DF0282528F07C5455450020545496
:100340007C547C0A097F4932494949323A44444441
:100350003A324A4848303A4141217A3A424020787C
:10036000009DA0A07D3D4242423D3D4040403D3C7D
:1003700024FF2424487E4943662B2FFC2F2BFF09A2
:1003800029F620C0887E0903205454794100004496
:100390007D413048484A32384040227A007A0A0A81
:1003A000727D0D19317D2629292F282629292926F4
:1003B00030484D4020380808080808080808382F39
:1003C00010C8ACBA2F102834FA00007B00000814C3
:1003D0002A142222142A14085500550055AA55AA99
:1003E00055AAFF55FF55FF000000FF00101010FF39
:1003F00000141414FF001010FF00FF1010F010F094
:10040000141414FC001414F700FF0000FF00FF1484
:1004100014F404FC141417101F10101F101F1414D0
:10042000141F00101010F0000000001F101010101A
:100430001F10101010F010000000FF10101010100E
:1004400010101010FF10000000FF140000FF00FF4C
:1004500000001F10170000FC04F4141417101714E8
:1004600014F404F40000FF00F7141414141414140A
:10047000F700F7141414171410101F101F1414147D
:10048000F4141010F010F000001F101F0000001FE7
:1004900014000000FC140000F010F01010FF10FF1A
:1004A000141414FF141010101F00000000F010FFAF
:1004B000FFFFFFFFF0F0F0F0F0FFFFFF0000000093
:1004C00000FFFF0F0F0F0F0F3844443844FC4A4A17
:1004D0004A347E02020606027E027E0263554941CC
:1004E000633844443C04407E201E2006027E020203
:1004F00099A5E7A5991C2A492A1C4C7201724C3017
:100500004A4D4D303048784830BC625A463D3E49ED
:100510004949007E0101017E2A2A2A2A2A44445F91
:10052000444440514A444040444A51400000FF0185
:1005300003E080FF000008086B6B08361236243693
:10054000060F090F060000181800000010100030F8
:1005500040FF0101001F01011E00191D1712003C80
:100560003C3C3C000000000000000000240027008C
:100570002A00000000080002010000030407000038
:1005800000000000000000000100FF003200010038
:100590000001020000070300301004000000080002
:1005A0000202090000000A0000000C0000000D001B
:1005B00000000F00000010000000110007001200F2
:1005C000000013000000FF00C8001000901611008A
:1005D0002702FF00320012001A00FF003200130051
:1005E000001829002A00FF0032003000000031000E
:1005F000000032000000350006023600080837000F
:10060000070038000102390000003C0000003D00F6
:1006100000002000000021000000500000005100F8
:10062000EF005200000053003F01600000A761008E
:1006300003006A0000009000100092000000930088
:1006400003009500001197000000980000000700CB
:100650003301010204081020408001020408102028
:1006600001020408102000000000250028002B00D3
:100670000404040404040404020202020202030348
:1006800003030303111511241FBECFEFD8E0DEBF13
:10069000CDBF11E0A0E0B1E0E4E2FDE302C00590CF
:1006A0000D92A03CB107D9F723E0A0ECB1E001C066
:1006B0001D92AA34B207E1F713E0C3E4D3E004C00B
:1006C0002197FE010E94851EC234D107C9F70E94FE
:1006D0001E160C94901E0C94000080913F02909185
:1006E0004002891B990B089508950895AF92BF9217
:1006F000CF92DF92EF92FF920F931F93CF93DF93EE
:100700006C017B018B01040F151FEB015E01AE181C
:10071000BF08C017D10759F06991D601ED91FC913E
:100720000190F081E02DC6010995892B79F7C5016B
:10073000DF91CF911F910F91FF90EF90DF90CF90BD
:10074000BF90AF900895FC01538D448D252F30E06C
:10075000842F90E0821B930B541710F0CF960895CE
:1007600001970895FC01918D828D981761F0A28DFB
:10077000AE0FBF2FB11D5D968C91928D9F5F9F73C1
:10078000928F90E008958FEF9FEF0895FC01918D77
:10079000828D981731F0828DE80FF11D858D90E0E4
:1007A00008958FEF9FEF0895FC01918D228D892F81
:1007B00090E0805C9F4F821B91098F739927089569
:1007C0008FE692E00E94D40321E0892B09F420E017
:1007D000822F089580E090E0892B29F00E94E003A9
:1007E00081110C9400000895FC01A48DA80FB92F6D
:1007F000B11DA35ABF4F2C91848D90E001968F7349
:100800009927848FA689B7892C93A089B1898C9167
:10081000837080648C93938D848D981306C00288B6
:10082000F389E02D80818F7D80830895EF92FF9280
:100830000F931F93CF93DF93EC0181E0888F9B8D03
:100840008C8D98131AC0E889F989808185FF15C0BD
:100850009FB7F894EE89FF896083E889F9898081E0
:100860008370806480839FBF81E090E0DF91CF91AF
:100870001F910F91FF90EF900895F62E0B8D10E0D1
:100880000F5F1F4F0F731127E02E8C8D8E110CC040
:100890000FB607FCFACFE889F989808185FFF5CF8B
:1008A000CE010E94F403F1CFEB8DEC0FFD2FF11D73
:1008B000E35AFF4FF0829FB7F8940B8FEA89FB89C8
:1008C00080818062CFCFCF93DF93EC01888D882326
:1008D000B9F0AA89BB89E889F9898C9185FD03C0A3
:1008E000808186FD0DC00FB607FCF7CF8C9185FF88
:1008F000F2CF808185FFEDCFCE010E94F403E9CFD6
:10090000DF91CF91089590E0FC01EE58FA4F2491C9
:10091000FC01EE5AF94F3491FC01E059F94FE49192
:10092000EE23C9F0222339F0233001F1A8F421305D
:1009300019F1223029F1F0E0EE0FFF1FEA59F94FCB
:10094000A591B4918FB7F894EC91611126C03095C0
:100950003E233C938FBF08952730A9F02830C9F07B
:10096000243049F7809180008F7D03C08091800002
:100970008F7780938000DFCF84B58F7784BDDBCF06
:1009800084B58F7DFBCF8091B0008F778093B000CE
:10099000D2CF8091B0008F7DF9CF3E2BDACFCF93AD
:1009A000DF9390E0FC01EE5AF94F24918059994F62
:1009B000FC0184918823D1F090E0880F991FFC01FD
:1009C000E859FA4FA591B491FC01EA59F94FC59144
:1009D000D49161110EC09FB7F8948C91E22FE095ED
:1009E0008E238C932881E223E8839FBFDF91CF91F0
:1009F00008958FB7F894EC91E22BEC938FBFF6CF6C
:100A00008E3008F08E508770806480937C008091D7
:100A10007A00806480937A0080917A0086FDFCCF12
:100A2000809178009091790008953FB7F894809173
:100A3000090290910A02A0910B02B0910C0226B516
:100A4000A89B05C02F3F19F00196A11DB11D3FBF06
:100A5000BA2FA92F982F8827BC01CD01620F711DD5
:100A6000811D911D42E0660F771F881F991F4A95CF
:100A7000D1F708958F929F92AF92BF92CF92DF925B
:100A8000EF92FF926B017C010E9415054B015C0106
:100A9000C114D104E104F104B9F00E9415056819EC
:100AA00079098A099B09683E73408105910580F3A5
:100AB00021E0C21AD108E108F10888EE880E83E02F
:100AC000981EA11CB11CE4CFFF90EF90DF90CF9057
:100AD000BF90AF909F908F900895E0913103F09177
:100AE0003203808190913903892B8083E091350313
:100AF000F0913603808190913B03892B8083E091B4
:100B00003703F0913803808190913C03892B8083D7
:100B100080914103882371F060E00E94830462E0C9
:100B200070E080E090E00E943A0561E0809141032E
:100B30000E948304E0913103F0913203808190910F
:100B40003D0389238083E0913303F0913403808156
:100B500090913E03892380838BB183708BB985B1DB
:100B60008C7F85B9E0913503F091360380819091B7
:100B70003F0389238083E0913503F0913603808120
:100B800090913B03892B808383E0E0913503F091C2
:100B90003603908120913F0392239083E0913503A7
:100BA000F0913603908120913B03922B90838150EA
:100BB00061F7E0913103F091320380819091390324
:100BC000892B808308952091E101260F3327331F5D
:100BD00021323105ECF420913902FC0190E080E0F3
:100BE000243069F082E00895A091E1012191AC01E7
:100BF0004F535E4FA40FB52FB11D2C93019686174E
:100C000098F38091E101680F6093E10180E008951D
:100C100081E008951092390281E0809338021092A9
:100C2000330261E082E10E94830461E083E10E947B
:100C30008304E9EBF0E080818E7F808380818D7F6B
:100C4000808388E48093B80085E48093BC00089595
:100C5000CF93DF9391E09093C0018823B9F0C091C6
:100C6000B800D091BA008091BC008A7B8093BC0010
:100C700060E082E10E94830460E083E10E948304DB
:100C80000E940A06D093BA00C093B800DF91CF91BA
:100C900008950895E091400280913F02E81730F4F2
:100CA000F0E0EF5BFD4F808190E008958FEF9FEFC4
:100CB00008959091400280913F022FEF3FEF9817E7
:100CC00048F4E92FF0E0EF5BFD4F208130E09F5FBB
:100CD00090934002C9010895CF93DF93CB01EA01BD
:100CE000642F0E94E305CE01DF91CF910895CF9349
:100CF000DF931F92CDB7DEB7698361E0CE01019625
:100D00000E94E30581E090E00F90DF91CF9108957C
:100D1000CF92DF92EF92FF92FC01A18DB28D8C9168
:100D200095A189238C93A38DB48D8C9196A1892351
:100D30008C938BB1837088628BB985B18C7F637023
:100D4000682B65B9A58DB68D8C9197A189238C935D
:100D5000A58DB68D8C9193A1892B8C93A38DB48D89
:100D60008C9192A1892B8C9383E290E0DC01119706
:100D7000F1F77BB1C52EDD24EE24FF2473706C2DBA
:100D80006C7F762B7BB965B16C7F7C2D7370672B84
:100D900065B9A58DB68D6C9177A167236C93A58DF0
:100DA000B68D6C9173A1672B6C93DC011197F1F7F1
:100DB0007BB16A01EE24FF2473706C2D6C7F762B5F
:100DC0007BB965B16C7F7C2D7370672B65B9A58D80
:100DD000B68D6C9177A167236C93A58DB68D6C91C0
:100DE00073A1672B6C93DC011197F1F77BB1C32ED4
:100DF000D42EE52EFF2473706C2D6C7F762B7BB97F
:100E000065B16C7F7C2D7370672B65B9A58DB68D30
:100E10006C9177A167236C93A58DB68D6C9173A1AE
:100E2000672B6C930197F1F78BB18370922F9C7FA6
:100E3000892B8BB985B18C7F2370282B25B9A58D83
:100E4000B68D8C9197A189238C93A58DB68D8C91AD
:100E500093A1892B8C93A18DB28D8C9191A1892B1B
:100E60008C93FF90EF90DF90CF900895FC01A38DBD
:100E7000B48D8C9196A189238C938BB18370962F1E
:100E80009C7F892B8BB985B18C7F6370682B65B98A
:100E9000A58DB68D8C9197A189238C93A58DB68D48
:100EA0008C9193A1892B8C93A38DB48D8C9192A15D
:100EB000892B8C938BB18370932F9C7F892B8BB95B
:100EC00085B18C7F3370382B35B9A58DB68D8C915B
:100ED00097A189238C93A58DB68D8C9193A1892B95
:100EE0008C93A38DB48D8C9196A189238C938BB117
:100EF0008370942F9C7F892B8BB985B18C7F437035
:100F0000482B45B9A58DB68D8C9197A189238C93DB
:100F1000A58DB68D8C9193A1892B8C93A38DB48DC7
:100F20008C9192A1892B8C938BB18370922F9C7F93
:100F3000892B8BB985B18C7F2370282B25B9A58D82
:100F4000B68D8C9197A189238C93A58DB68D8C91AC
:100F500093A1892B8C930895FC01A38DB48D8C9162
:100F600096A189238C938BB18370972F9C7F892BBB
:100F70008BB985B18C7F7370782B75B9A58DB68DC3
:100F80008C9197A189238C93A58DB68D8C9193A17B
:100F9000892B8C938BB18370962F9C7F892B8BB977
:100FA00085B18C7F6370682B65B9A58DB68D8C91EA
:100FB00097A189238C93A58DB68D8C9193A1892BB4
:100FC0008C93A38DB48D8C9192A1892B8C938BB132
:100FD0008370952F9C7F892B8BB985B18C7F537043
:100FE000582B55B9A58DB68D8C9197A189238C93DB
:100FF000A58DB68D8C9193A1892B8C938BB1837029
:10100000942F9C7F892B8BB985B18C7F4370482BA3
:1010100045B9A58DB68D8C9197A189238C93A58D0B
:10102000B68D8C9193A1892B8C930895FC01A38D8F
:10103000B48D8C9196A189238C938BB18370962F5C
:101040009C7F892B8BB985B18C7F6370682B65B9C8
:10105000A58DB68D8C9197A189238C93A58DB68D86
:101060008C9193A1892B8C93A38DB48D8C9192A19B
:10107000892B8C938BB18370942F9C7F892B8BB998
:1010800085B18C7F4370482B45B9A58DB68D8C9169
:1010900097A189238C93A58DB68D8C9193A1892BD3
:1010A0008C930895AF92BF92CF92DF92EF92FF920E
:1010B0000F931F93CF93DF93FC01A18DB28D8C9181
:1010C00095A189238C93A38DB48D8C9196A18923AE
:1010D0008C93808D823009F0C6C08BB183708C6296
:1010E0008BB985B18C7F85B9A58DB68D8C9197A173
:1010F00089238C93A58DB68D8C9193A1892B8C938C
:10110000A38DB48D8C9192A1892B8C938BB1D72F09
:10111000DC7F83708D2B8BB985B1C72FC3708C7F1B
:101120008C2B85B9A58DB68D8C9197A189238C9335
:10113000A58DB68D8C9193A1892B8C938BB1962F15
:101140009C7FB92E8370892B8BB985B1A62FA37094
:10115000AA2E8C7F8A2B85B9058D168DD8018C918E
:1011600097A189238C93058D168DD8018C9193A11D
:10117000892B8C93215031094109510969017A0168
:1011800086E0F694E794D794C7948A95D1F77613BE
:10119000A6C0B1E0CB1AD10808F484C060E1A58DE7
:1011A000B68D7C91C7A17C237C93A58DB68D7C9157
:1011B000C3A17C2B7C93A58DB68D7C91C7A17C238C
:1011C0007C93A58DB68D7C91C3A17C2B7C93A58D42
:1011D000B68D7C91C7A17C237C93A58DB68D7C9127
:1011E000C3A17C2B7C93A58DB68D7C91C7A17C235C
:1011F0007C93A58DB68D7C91C3A17C2B7C93A58D12
:10120000B68D7C91C7A17C237C93A58DB68D7C91F6
:10121000C3A17C2B7C93A58DB68D7C91C7A17C232B
:101220007C93A58DB68D7C91C3A17C2B7C93A58DE1
:10123000B68D7C91C7A17C237C93A58DB68D7C91C6
:10124000C3A17C2B7C93A58DB68D7C91C7A17C23FB
:101250007C93A58DB68D7C91C3A17C2B7C93615032
:1012600009F09DCF96CF81111AC08BB183708BB9D5
:1012700085B18C7F85B9A58DB68D8C9197A1892379
:101280008C93A58DB68D8C9193A1892B8C938BB16A
:10129000837080628BB985B18C7F826024CF83306C
:1012A000B1F71BCF2F73215008F403C1A58DB68D64
:1012B0008C9197A189238C93A58DB68D8C9193A148
:1012C000892B8C93A58DB68D8C9197A189238C93B6
:1012D000A58DB68D8C9193A1892B8C93E4CF91E051
:1012E000C91AD10808F4B5C070E16BB163706D2BF9
:1012F0006BB965B16C7F6C2B65B9058D168DD80106
:101300006C91F7A06F216C93058D168DD8016C91AF
:10131000F3A06F296C936BB163706B296BB965B1E6
:101320006C7F6A2965B9058D168DD8016C91F7A07F
:101330006F216C93058D168DD8016C91F3A06F29E8
:101340006C936BB163706D2B6BB965B16C7F6C2B5B
:1013500065B9058D168DD8016C91F7A06F216C933E
:10136000058D168DD8016C91F3A06F296C936BB12C
:1013700063706B296BB965B16C7F6A2965B9058D9E
:10138000168DD8016C91F7A06F216C93058D168D89
:10139000D8016C91F3A06F296C936BB163706D2BC6
:1013A0006BB965B16C7F6C2B65B9058D168DD80155
:1013B0006C91F7A06F216C93058D168DD8016C91FF
:1013C000F3A06F296C936BB163706B296BB965B136
:1013D0006C7F6A2965B9058D168DD8016C91F7A0CF
:1013E0006F216C93058D168DD8016C91F3A06F2938
:1013F0006C936BB163706D2B6BB965B16C7F6C2BAB
:1014000065B9058D168DD8016C91F7A06F216C938D
:10141000058D168DD8016C91F3A06F296C936BB17B
:1014200063706B296BB965B16C7F6A2965B9058DED
:10143000168DD8016C91F7A06F216C93058D168DD8
:10144000D8016C91F3A06F296C93715009F04DCFC6
:1014500046CF2F73215068F18BB183708D2B8BB9E0
:1014600085B18C7F8C2B85B9458D568DDA018C9199
:1014700097A189238C93458D568DDA018C9193A188
:10148000892B8C938BB183708B298BB985B18C7F21
:101490008A2985B9458D568DDA018C9197A18923CA
:1014A0008C93458D568DDA018C9193A1892B8C9369
:1014B000D1CFA18DB28D8C9191A1892B8C93DF918D
:1014C000CF911F910F91FF90EF90DF90CF90BF9041
:1014D000AF900895CF93DF93EC01E98DFA8D808171
:1014E0009DA189238083288539852150310945E0D4
:1014F00064E0CE010E9436072A853B8521503109E0
:1015000049E068E0CE010E943607E98DFA8D8081BE
:1015100099A1892B8083DF91CF9108958F929F921B
:10152000AF92BF92CF92DF92EF92FF920F931F93F1
:10153000CF93DF93EC017A016901E98DFA8D808107
:101540009DA189238083888D811171C08D8982300E
:1015500009F44BC0833009F45CC05A014B0181305F
:1015600069F48FEE90E09C01201B310B4C01841A32
:10157000950A5B01860164017B01B901AB0160E55D
:1015800070E0CE010E94AC07A60161E570E0CE01DB
:101590000E94AC07A70162E570E0CE010E94AC0793
:1015A000A80163E570E0CE010E94AC07A40160E2EF
:1015B00070E0CE010E94AC07A50161E270E0CE01AF
:1015C0000E94AC07E98DFA8D808199A1892B8083D7
:1015D000DF91CF911F910F91FF90EF90DF90CF900F
:1015E000BF90AF909F908F9008958FEE90E09C01F8
:1015F0002C193D096C01C61AD70A8FE391E0AC01A2
:10160000401B510B8C010E191F09580146017A012C
:10161000B4CF8FE391E09C012C193D095C01A61A1F
:10162000B70A4A0168018501B7017901A7CF813066
:10163000C9F49B0143E062E0CE010E9436079701A6
:1016400047E066E0CE010E943607960145E064E07F
:10165000CE010E943607980149E068E0CE010E9461
:101660003607B0CF8250823008F0ACCFCB01770F75
:10167000AA0BBB0BDC01992788279601DD0C440BD4
:10168000550B282B392B4A2B5B2B6AE2CE010E948B
:101690008806C701FF0CAA0BBB0BDC019927882722
:1016A000012E000C220B330BA9019801282B392B9A
:1016B0004A2B5B2B6BE2CE010E94880683CF0F93EF
:1016C0001F93CF93DF93837080932D0320911C038E
:1016D00030911D0340911E0350911F03813009F486
:1016E000AFC0833009F4ACC03093210320932003B2
:1016F0005093230340932203E0913103F09132038E
:10170000808190913D0389238083809130038111F2
:1017100028C0E0912D03E15040E350E1E33038F47C
:10172000F0E0EE0FFF1FE35FFE4F4081518163E069
:1017300070E088E193E00E94AC07009122031091D1
:1017400023030150110920912003309121032150DE
:10175000310950E040E070E060E088E193E00E94F1
:101760008E0A80913003813099F4E0912D03E1508D
:1017700040E0E33020F4F0E0E65FFE4F408166E1B8
:1017800088E193E00E94160888E193E00E946A0ACB
:1017900080913003823039F580912D03813009F436
:1017A0005AC008F456C0823009F457C0833009F497
:1017B000D8E24D2F66E388E193E00E94160800917D
:1017C000220310912303015011092091200330912D
:1017D00021032150310950E040E070E060E088E1F1
:1017E00093E00E948E0A80913003833021F580912E
:1017F0002D038130B1F198F18230A9F1833009F4E1
:10180000C0E64C2F66E388E193E00E941608009141
:1018100022031091230301501109209120033091DC
:1018200021032150310950E040E070E060E088E1A0
:1018300093E00E948E0ADF91CF911F910F9108953E
:1018400050932103409320033093230320932203DA
:1018500053CFD8E8AECFD8EEACCFD8E4AACFC0EC07
:10186000D0CFC0EACECFC0E0CCCFAF92BF92CF9264
:10187000DF92EF92FF920F931F93CF93DF93EC01D0
:101880007B016A01B22EA32E77FD3BC057FD39C004
:101890008885998568177907A4F58A859B854817F7
:1018A00059077CF5E98DFA8D80819DA1892380837C
:1018B000888D811145C08D89823071F18330C9F1E5
:1018C000813031F48FEE90E0841B950B6B017C012D
:1018D000A70160E270E0CE010E94AC07A60161E2C0
:1018E00070E0CE010E94AC074B2D5A2D62E270E0F1
:1018F000CE010E94AC07E98DFA8D808199A1892BD8
:101900008083DF91CF911F910F91FF90EF90DF9037
:10191000CF90BF90AF9008958FEE90E09C01261B72
:10192000370B79018FE391E09C01241B350B690192
:10193000CFCF8FE391E0861B970B7A016C01C8CF64
:10194000813009F06CC0ED89E15040E0E33020F4D3
:10195000F0E0E65FFE4F408166E1CE010E9416088E
:10196000970143E062E0CE010E943607960147E00E
:1019700066E0CE010E943607EB8DFC8D80819EA132
:10198000892380838BB1837080628BB985B18C7F12
:10199000826085B9ED8DFE8D80819FA18923808332
:1019A000ED8DFE8D80819BA1892B8083EB8DFC8D3D
:1019B00080819AA1892B80838BB183709A2D9C7F23
:1019C000892B8BB985B18C7F3A2D3370A32EA82A31
:1019D000A5B8ED8DFE8D80819FA189238083ED8D3B
:1019E000FE8D80819BA1892B80838BB183709B2D81
:1019F0009C7F892B8BB985B18C7F9B2D9370B92EE1
:101A0000B82AB5B8ED8DFE8D80819FA18923808392
:101A1000ED8DFE8D80819BA1892B80836CCF8250C0
:101A2000823008F068CF0A851B850150110928858E
:101A3000398521503109CE010E948E0AE98DFA8D37
:101A400080819DA189238083EB8DFC8D80819EA167
:101A5000892380838BB183708C628BB985B18C7F35
:101A600085B9ED8DFE8D80819FA189238083ED8DC9
:101A7000FE8D80819BA1892B8083EB8DFC8D8081E5
:101A80009AA1892B80838BB183709A2D9C7F892B9F
:101A90008BB995B19C7F2A2D2370A22EA92AA5B8B7
:101AA000ED8DFE8D80819FA189238083ED8DFE8D3C
:101AB00080819BA1892B80838BB183709B2D9C7F20
:101AC000892B8BB995B19C7F3B2D3370B32EB92AEE
:101AD00098CFEF92FF920F931F93CF93DF93EC0178
:101AE0007B01888D811135C08D898150833060F5EF
:101AF00090E0FC01E95FFE4F408150E0880F991FA4
:101B0000FC01EF5FFE4F00811181E98DFA8D80812C
:101B10009DA18923808360E270E0CE010E94AC0722
:101B2000A80161E270E0CE010E94AC0720E03CE237
:101B300041E050E0B701CE01DF91CF911F910F91AD
:101B4000FF90EF900C94520810E000E050E040E06D
:101B5000DCCF8150833050F70A851B850150110975
:101B6000288539852150310950E040E070E060E07F
:101B7000CE010E948E0ADACF8F929F92AF92BF92CF
:101B8000CF92DF92EF92FF920F931F93CF93DF9349
:101B9000EC01F901D80147011E161F06ECF41A16D4
:101BA0001B06D4F4A884B9846A157B05ACF48A8535
:101BB0009B854817590784F47901E60EF71E9701B3
:101BC0002150310937FD08C06801C40ED51E8601B9
:101BD0000150110917FF56C0DF91CF911F910F914E
:101BE000FF90EF90DF90CF90BF90AF909F908F903D
:101BF000089570E060E057FD33C06D012A153B0584
:101C000034F09501215031097501E61AF70A0817D9
:101C1000190734F08C01015011096C01C41AD50A5E
:101C2000CE010E948E0A9701D6010E94671E9B0179
:101C3000AC01B401CE010E945208888D811113C0FD
:101C40000A851B85015011092885398521503109E4
:101C500050E040E070E060E0CE010E948E0ABCCF10
:101C600050E040E0CBCFCE01DF91CF911F910F919B
:101C7000FF90EF90DF90CF90BF90AF909F908F90AC
:101C80000C946A0A77FDB5CF7F01B5CFCF92DF9272
:101C9000EF92FF920F931F93CF93DF93EC016901B3
:101CA0007801121613060CF03FC077FD3DC0888501
:101CB000998568177907C4F58A859B854817590760
:101CC0009CF5240F351F89010150110917FD2CC007
:101CD00057FF03C0690150E040E00817190734F0CE
:101CE0008C01015011096C01C41AD50A9B01CE0167
:101CF0000E948E0A9601DD0C440B550BB701CE01F4
:101D00000E945208888D811118C00A851B850150D8
:101D10001109288539852150310950E040E070E0F3
:101D200060E0CE010E948E0ADF91CF911F910F914A
:101D3000FF90EF90DF90CF900895CE01DF91CF918B
:101D40001F910F91FF90EF90DF90CF900C946A0A53
:101D50002F923F924F925F926F927F928F929F92BB
:101D6000AF92BF92CF92DF92EF92FF920F931F93A9
:101D7000CF93DF93CDB7DEB728970FB6F894DEBFC9
:101D80000FBECDBF4C012B0158874F8359019A01DB
:101D9000220F331F2F5F3F4FAB018F819885481B68
:101DA000590B8501B40188E193E00E94460E81E061
:101DB00090E07C012F813885E21AF30AC9019195E0
:101DC00081959109AC01440F551F5C834B836624B8
:101DD0006394712CD12CC12CF7FC0DC08F81988598
:101DE000019798878F832B813C812E5F3F4F3C83E7
:101DF0002B83E20EF31E3FEFC31AD30A42E0640EB8
:101E0000711CE60CF71C2F803884220C331C5FEF0A
:101E1000251A350AB601680D791D85019101C201A7
:101E20004F815885841B950B9A838983AC0188E187
:101E300093E00E94460EC2018C199D099E838D83FA
:101E40009301AC016F817885680D791D88E193E07D
:101E50000E94460EB4016C197D09910149815A8195
:101E600088E193E00E94460E93014D815E81B401AA
:101E70008F819885681B790B88E193E00E94460E5C
:101E80002F813885C216D3060CF4A6CF28960FB63C
:101E9000F894DEBF0FBECDBFDF91CF911F910F91A0
:101EA000FF90EF90DF90CF90BF90AF909F908F907A
:101EB0007F906F905F904F903F902F900895CF92BA
:101EC000DF92EF92FF920F931F93CF93DF93EC017A
:101ED00069017801121613060CF040C057FD3EC090
:101EE0008A859B8548175907CCF588859985681799
:101EF0007907A4F5F901E60FF71F9F012150310979
:101F000037FD2CC077FF03C06F0170E060E0281739
:101F1000390734F09C01215031096C01C61AD70AE7
:101F20008A01CE010E948E0A9601DD0C440B550BEE
:101F3000B701CE010E945208888D811118C00A8510
:101F40001B8501501109288539852150310950E040
:101F500040E070E060E0CE010E948E0ADF91CF91F8
:101F60001F910F91FF90EF90DF90CF900895CE01D9
:101F7000DF91CF911F910F91FF90EF90DF90CF9065
:101F80000C946A0A08952F923F924F925F926F923B
:101F90007F928F929F92AF92BF92CF92DF92EF92F9
:101FA000FF920F931F93CF93DF93CDB7DEB72C979C
:101FB0000FB6F894DEBF0FBECDBF9C878B876A300B
:101FC00061F5DC0154968C91B8E08B9F900111244F
:101FD000EB85FC8586859785820F931F978786877B
:101FE0001586148681E090E02C960FB6F894DEBF3B
:101FF0000FBECDBFDF91CF911F910F91FF90EF905A
:10200000DF90CF90BF90AF909F908F907F906F9018
:102010005F904F903F902F9008956D3019F3AB85EE
:10202000BC851C96CD90DC901D9718968D919C9147
:102030001997C816D9060CF08BC01E968D909C90EF
:102040001F971A968D919C911B97881699060CF0F4
:102050007FC05496BC91B983AB2EB12CC601E6E08B
:10206000BE9F800D911D1124181619060CF070C02A
:10207000C50123E0880F991F2A95E1F7880D991D66
:10208000181619060CF064C0AB85BC8557968C9168
:10209000811103C0603B08F06F5FEB85FC8502880F
:1020A000F389E02DFC83EB83AB85BC8550960D90C6
:1020B000BC91A02DBE83AD8326011A8288E690E0F4
:1020C0008C199D09FC0125E0629FE00DF11D112492
:1020D000FA87E9873A81E0E0353029F0E985FA8529
:1020E000E40DF51DE4911401712C612C4E2F50E08C
:1020F00058874F83E0FF6AC0AB85BC85ED91FC91AA
:10210000B981B13009F055C00084F185E02D2D81F1
:102110003E81A401460D571DB2018B859C85099512
:10212000EF81F885F595E795FFEF6F1A7F0A2A0C86
:102130003B1C28E062167104C9F63FEF431A530AAC
:10214000CA0CDB1C4A814F5F4A83463009F0C2CF7C
:10215000AB85BC8554964C915497242F30E01C9647
:102160008D919C91B6E04B9F800D911D1124EB85C4
:10217000FC85958784874689442309F433CF6AEF29
:102180006203A001639F500D112460857185460F85
:10219000571F481759070CF025CF83E0220F331F34
:1021A0008A95E1F786859785280F391F3787268717
:1021B00017CF0288F389E02DED80FE80850195011F
:1021C000A101B6018B859C850995AACFEB81FC8185
:1021D0002D813E81E217F30709F4A2CFAB85BC85C0
:1021E000ED91FC91B981B13031F40084F185E02D9D
:1021F0002B813C818ECF0288F389E02DEB80FC801F
:10220000DDCFEF92FF920F931F93DC011A960D9191
:102210001C911B9718962D913C911997ED91FC916B
:102220000288F389E02D7B0150E040E070E060E03F
:1022300009951F910F91FF90EF9008956F927F92F3
:102240008F929F92AF92BF92CF92DF92EF92FF92C6
:102250000F931F93CF93DF936C015A014801EB0159
:102260003B01620E731EC615D70574F4D601ED91BD
:10227000FC910484F585E02D87019401A501BE0140
:10228000C60109952196EFCFDF91CF911F910F9154
:10229000FF90EF90DF90CF90BF90AF909F908F9086
:1022A0007F906F900895EF92FF920F931F93260FE8
:1022B000371F21503109DC01ED91FC910284F38537
:1022C000E02D78018A0109951F910F91FF90EF9001
:1022D0000895EF92FF920F931F93240F351F215003
:1022E0003109DC01ED91FC910284F385E02D780148
:1022F00089019B0109951F910F91FF90EF9008951F
:102300006F927F928F929F92AF92BF92CF92DF9205
:10231000EF92FF920F931F93CF93DF93EC016B012A
:102320005A0139014801E881F9810684F785E02DD9
:1023300087010995A501480D591D41505109E881B2
:10234000F9810684F785E02D9301B601CE01099548
:10235000E881F9810484F585E02D9401A501B60199
:10236000CE010995C60CD71CB60161507109E881F0
:10237000F9810484F585E02D9401A501CE0109952C
:10238000DF91CF911F910F91FF90EF90DF90CF9051
:10239000BF90AF909F908F907F906F9008952F92F5
:1023A0003F924F925F926F927F928F929F92AF92E5
:1023B000BF92CF92DF92EF92FF920F931F93CF9332
:1023C000DF9300D000D000D0CDB7DEB73C016A016A
:1023D0003E832D83FC82EB825801A41AB50AB7FE16
:1023E00003C0B194A194B1088D809E80861A970A8B
:1023F00097FE03C09194819491088A149B045CF029
:10240000902F812F0D811E819D838E839C2D8D2D7C
:102410006B01692F782F0C151D055CF09D818E8155
:102420007E836D83692F782F902F812F8601C92E8F
:10243000D82E1601201A310A2B012D813E81421A15
:10244000530A57FE03C0519441945108710137FE5D
:1024500003C03FEFE31AF30AF594E7948D819E8160
:10246000861797075CF5A1E0B0E0BA83A983C01690
:10247000D1064CF1D301ED91FC910084F185E02D62
:102480002B813C81A8016D817E818A149B041CF004
:102490004D815E81B801C3010995E418F508F7FE86
:1024A0000AC02D813E8189819A81280F391F3E8380
:1024B0002D83E20CF31C0F5F1F4FD9CF2FEF3FEF9F
:1024C0003A832983D4CF26960FB6F894DEBF0FBE89
:1024D000CDBFDF91CF911F910F91FF90EF90DF90D3
:1024E000CF90BF90AF909F908F907F906F905F90B4
:1024F0004F903F902F900895089590E080E00895C8
:102500000E948B1EFB0101900020E9F73197AF017B
:10251000461B570BDC01ED91FC910280F381E02D0D
:1025200009944F925F926F927F92AF92BF92CF9237
:10253000DF92EF92FF920F931F93CF93DF93CDB76C
:10254000DEB7A1970FB6F894DEBF0FBECDBF5C011A
:102550006A017B01F7FE47C0DC01ED91FC9101901F
:10256000F081E02D6DE209958C0122273327A90126
:102570002C193D094E095F0919A2FE01B1967F0190
:102580009AE0492E512C612C712CCA01B901A3018A
:1025900092010E94451E605DD7016E937D01211559
:1025A00031054105510589F790E080E0109721F051
:1025B000BD01C5010E948212800F911FA1960FB626
:1025C000F894DEBF0FBECDBFDF91CF911F910F9169
:1025D000FF90EF90DF90CF90BF90AF907F906F9083
:1025E0005F904F900895AB01960119A28E010F5D87
:1025F0001F4F8AE0C82ED12CE12CF12CCA01B90161
:10260000A70196010E94451E605DF80162938F014B
:10261000211531054105510589F790E080E030979B
:1026200069F2BF01C5010E948212C8CF0C948212C8
:1026300085ED8093BC0080913B0290913C02A0917B
:102640003D02B0913E020796A11DB11D23E0B69553
:10265000A795979587952A95D1F72091BC0024FDE1
:1026600003C010923902089540913B0250913C0200
:1026700060913D0270913E02452B462B472B69F33A
:102680000097A105B10541F025E32A95F1F7000077
:102690000197A109B109E1CF80913A020C94280673
:1026A0001F920F920FB60F9211242F933F934F93C7
:1026B0005F936F937F938F939F93AF93BF93EF93AA
:1026C000FF938FE692E00E94F403FF91EF91BF9198
:1026D000AF919F918F917F916F915F914F913F91BA
:1026E0002F910F900FBE0F901F9018951F920F9271
:1026F0000FB60F9211242F938F939F93EF93FF9315
:10270000E0917F02F09180028081E0918502F0915A
:10271000860282FD1BC09081809188028F5F8F733B
:1027200020918902821741F0E0918802F0E0E1599E
:10273000FD4F958F80938802FF91EF919F918F912C
:102740002F910F900FBE0F901F9018958081F4CF9E
:102750001F920F920FB60F9211242F933F938F93D6
:102760009F93AF93BF938091050290910602A09131
:102770000702B09108023091040223E0230F2D37A5
:1027800058F50196A11DB11D209304028093050206
:1027900090930602A0930702B09308028091090269
:1027A00090910A02A0910B02B0910C020196A11D1A
:1027B000B11D8093090290930A02A0930B02B0937B
:1027C0000C02BF91AF919F918F913F912F910F90EC
:1027D0000FBE0F901F90189526E8230F0296A11D9B
:1027E000B11DD2CF1F920F920FB60F9211242F93CB
:1027F0003F934F935F936F937F938F939F93AF9389
:10280000BF93EF93FF938091B900887F803609F4DE
:102810004AC0F0F5883209F4A7C018F5803109F4F0
:102820009BC0B8F4882309F4F9C0883009F494C037
:10283000FF91EF91BF91AF919F918F917F916F9198
:102840005F914F913F912F910F900FBE0F901F906E
:102850001895883109F488C0803251F78093370287
:1028600014C0803409F49DC040F48033B9F3883338
:10287000F9F68093370285ECB0C0803509F485C045
:10288000883509F496C0883499F60E941813D0CF81
:10289000883909F48CC038F5883729F050F4883627
:1028A00011F0803729F683E08093390210920302F9
:1028B00057C0883809F47BC0803919F0803809F096
:1028C000B7CF80910302803208F071C0E09103021B
:1028D00081E08E0F809303028091BB00F0E0ED5108
:1028E000FE4F80833DC0803B39F0E0F4803A09F42C
:1028F00079C0883A09F09CCF84E080933902109225
:10290000E2011092E101E0910F02F09110020995AD
:102910008091E10181110FC081E08093E10110926B
:10292000C10109C0803C09F4A6CF883C09F4A3CFBB
:10293000883B09F07DCFE091E20181E08E0F80932A
:10294000E201F0E0EF53FE4F80818093BB00909155
:10295000E2018091E10129C0809134028093BB00A3
:1029600085EC8093BC0064CF909136028091350253
:10297000981758F5E091360281E08E0F8093360269
:10298000F0E0ED5EFD4F8081E9CFE091360281E01D
:102990008E0F809336028091BB00F0E0ED5EFD4F1C
:1029A000808390913602809135029817C8F285E8AD
:1029B000D8CFE091360281E08E0F8093360280916D
:1029C000BB00F0E0ED5EFD4F808380913802811105
:1029D0005CCF81E08093330284EA8093BC00109244
:1029E000390226CF85EC8093BC0010923902809189
:1029F0000302803230F4E0910302F0E0ED51FE4F2B
:102A000010826091030270E0E0910D02F0910E02DD
:102A100083EE91E00995109203020ACF10923702DB
:102A200034CFBF92CF92DF92EF92FF920F931F931A
:102A3000CF93DF93EFE6F2E01382128288EE93E009
:102A4000A0E0B0E084839583A683B78327E131E0DB
:102A50003183208325EC30E03587248724EC30E077
:102A60003787268720EC30E0318B208B21EC30E05B
:102A7000338B228B22EC30E0358B248B26EC30E03C
:102A8000378B268B118E128E138E148EECE0F3E0B2
:102A90001382128284839583A683B78389E291E0AF
:102AA00091838083E2E4F3E081E1828380E18483A7
:102AB00089E0838388E085838CE291E09783868335
:102AC0008AE090E091838083C8E1D3E01B821A8280
:102AD00080EFE82EF12CFD82EC8200E411E01F83F0
:102AE0000E83F986E8861B870A871D8A1D861C8649
:102AF0001F861E86BB24B394BC8ACC24CA94DC2CCB
:102B0000DB8ACA8AD98AC88ABE8A1F8A8BE391E087
:102B10009983888385E189A7E1E8F6E0E491F0E014
:102B2000EE0FFF1FEA59F94FA591B491BA8FA98F03
:102B3000E0E8F6E0E491F0E0EE0FFF1FEA59F94F0C
:102B4000859194919C8F8B8FEFE7F6E0E491F0E014
:102B5000EE0FFF1FEA59F94F859194919E8F8D8F4B
:102B6000EEE7F6E0E491F0E0EE0FFF1FEA59F94FCF
:102B70008591949198A38F8FE3E6F6E0849189A3E1
:102B8000E2E6F6E024912AA3E1E6F6E094919BA325
:102B9000E0E6F6E0E491ECA3382F30953DA32095D4
:102BA0002EA390959FA3E095E8A7EC91E82BEC93DA
:102BB000EB8DFC8D80819AA1892B8083ED8DFE8D1C
:102BC00080819BA1892B8083EF8DF8A180819CA1BE
:102BD000892B808361E081E10E94CF0461E080E184
:102BE0000E94CF0461E08FE00E94CF0461E08EE09C
:102BF0000E94CF0461E085E10E94830461E085E1E9
:102C00000E94CF048AB18C6F8AB984B1836084B981
:102C10001D8A1D861C861F861E86BC8AD98AC88A84
:102C2000F986E8861B870A87DF91CF911F910F9164
:102C3000FF90EF90DF90CF90BF900895CF93DF93F8
:102C400000D000D000D0CDB7DEB7789484B58260D4
:102C500084BD84B5816084BD85B5826085BD85B540
:102C6000816085BD80916E00816080936E001092BE
:102C70008100809181008260809381008091810039
:102C800081608093810080918000816080938000CA
:102C90008091B10084608093B1008091B000816028
:102CA0008093B00080917A00846080937A00809154
:102CB0007A00826080937A0080917A0081608093AC
:102CC0007A0080917A00806880937A001092C10027
:102CD000E0917F02F091800282E08083E0917B02AC
:102CE000F0917C021082E0917D02F0917E028FECE7
:102CF000808310928702E0918302F091840286E043
:102D00008083E0918102F0918202808180618083E2
:102D1000E0918102F0918202808188608083E0915D
:102D20008102F0918202808180688083E09181023B
:102D3000F091820280818F7D8083109240021092F8
:102D40003F0210921202109211020E940A0684E7BA
:102D500093E09093100280930F0285E793E09093A5
:102D60000E0280930D020E946D050E946D0568ECB5
:102D700070E080E090E00E943A0510923003E0910C
:102D80003103F0913203808190913D038923808348
:102D900026E835E03A83298302E516E0E981FA81E5
:102DA00065917491E981FA813296459154916F3F12
:102DB000710509F05DC3BA0190E080E00E943A0518
:102DC00089819A8104969A8389830817190731F7B4
:102DD00080912D030E945F0B0FE311E02FEE30E096
:102DE00050E040E070E060E088E193E00E948E0AED
:102DF00081E00E945F0B6FE170E088E193E00E9448
:102E0000690DEE24EA94FE2C06EE10E026E331E094
:102E100045E050E065E070E088E193E00E94BC0D81
:102E20002FE130E046E150E069E270E08DE290E0B1
:102E30000E94A80E2FEF3FEF41E150E069E270E001
:102E400084E390E00E94A80E8FE1E82EF12C04E0CC
:102E500010E02FE331E04EE450E070E060E088E104
:102E600093E00E94BC0D2FE331E040E850E070E0B9
:102E700060E088E193E00E94BC0D2FE331E042EB7B
:102E800050E070E060E088E193E00E94BC0D90EEBD
:102E9000E92E97E0F92E06E210E020E530E044E16B
:102EA00050E062ED70E088E193E00E94BC0D20EEFE
:102EB00037E042E150E067E270E082ED90E00E948E
:102EC000A80E20EE37E042E150E067E270E082E2D7
:102ED00091E00E94A80E87ED90E0909325038093E7
:102EE00024038DE190E090932703809326038FEFD6
:102EF0009FEF90932B0380932A0390932903809351
:102F0000280383E080932C0363E571E088E193E07C
:102F10000E94161387E390E0909325038093240387
:102F200086E290E090932703809326038FE190E060
:102F300090932B0380932A03909329038093280373
:102F400082E080932C0368E571E088E193E00E94C1
:102F5000821264E671E088E193E00E94821229E126
:102F6000E22EF12CF0922503E09224038AE590E012
:102F7000909327038093260380EE97E090932B0392
:102F800080932A03909329038093280304E00093FD
:102F90002C0367E671E088E193E00E9416132DECA4
:102FA00030E030932503209324038EE590E0909346
:102FB00027038093260310922B0310922A0310926A
:102FC00029031092280311E010932C036BE671E0A3
:102FD00088E193E00E9416138DEC90E09093250316
:102FE000809324038DE690E090932703809326033B
:102FF00066E771E088E193E00E941613F0922503E2
:10300000E09224038CE890E09093270380932603BA
:1030100010922B0310922A03109229031092280376
:1030200000932C0361E871E088E193E00E9416139D
:103030002DEC30E0309325032093240380E990E0C9
:10304000909327038093260310922B0310922A0358
:10305000109229031092280310932C0365E871E065
:1030600088E193E00E9416138DEC90E09093250385
:10307000809324038FE990E09093270380932603A5
:1030800061E971E088E193E00E941613F092250354
:10309000E09224038EEB90E0909327038093260325
:1030A00080EE9FEF90932B0380932A039093290344
:1030B0008093280300932C036DE971E088E193E08D
:1030C0000E9416132DEC30E0309325032093240347
:1030D00082EC90E0909327038093260310922B03B9
:1030E00010922A03109229031092280310932C03A4
:1030F0006BE671E088E193E00E9416138DEC90E09E
:10310000909325038093240381ED90E0909327030F
:103110008093260366E771E088E193E00E9416132E
:1031200088248A9433E0932E13E0712EA0914703F4
:10313000B0E0FD01E059F94F049180914403682FFC
:1031400070E0FB01E059F94F949199834091460357
:1031500050E0FA01E059F94FE4902091450330E046
:10316000F901E059F94F4490FD01EE5AF94F64908E
:10317000FB01EE5AF94FF490FA01EE5AF94FD49050
:10318000F901EE5AF94F349060E00E94CF0460E0FC
:10319000809145030E94CF043981232F30E0220F14
:1031A000331F2A59394F3E832D83F901A591B491DC
:1031B0008C912F2C209482218C93512C440C551CE3
:1031C000C2018A59994F2C01FC01A591B4919C919F
:1031D000832D809589238C9361E0809147030E9421
:1031E000CF0461E0809146030E94CF0410E0000FFD
:1031F000111F0A59194FF801A591B4918C91862994
:103200008C93EE2DF0E0EE0FFF1FEA59F94FA591D8
:10321000B491EC91D094DE22DC92809144030E9420
:1032200000059C838B83809144030E9400056C0100
:103230009401281B390B3A83298360E0809147036E
:103240000E94CF0460E0809146030E94CF04F80101
:10325000A591B4918C91609486218C9361E08091CA
:1032600044030E94CF04ED81FE81A591B491EC91BD
:10327000FE2AFC9261E0809145030E94CF04809178
:1032800046030E9400055C01809146030E940005F0
:103290007C01A816B90639F4BB24B3948B819C81B8
:1032A0008C159D0509F0B12C61E0809147030E94C7
:1032B000CF04F801A591B491EC916E226C92F201C9
:1032C000A591B491EC913E2A3C92ED81FE81A591AD
:1032D000B4918C9128222C9260E0809144030E944A
:1032E000CF04809146030E9400059C838B838091CC
:1032F00044030E940005BC0100914803109149035A
:103300000115110509F4B9C0072E000C880B990BA3
:103310000E944C1D1B012C012B813C81B901330FF4
:10332000880B990B0E944C1D9B01AC01C201B1019D
:103330000E94A21C20E030E040E85FE30E94351CC0
:103340001B012C0129813A81B901330F880B990B9C
:103350000E944C1DA20191010E94D81D1B012C014D
:10336000B80190E080E00E944A1DA20191010E94F4
:10337000D81D20E030E040E85AE30E94D81D0E94AA
:10338000141DBB2009F4C5C06D3B72400CF4C1C0D4
:1033900089819A81825E91098237910578F4C4010E
:1033A0008E199F09875E9109823D910538F48091BD
:1033B0000001882309F46AC01092000161E080E1F5
:1033C0000E94CF0461E081E10E94CF04809100015E
:1033D000811160C0E12C78EFF72E06E210E020E5C5
:1033E00030E044E150E062ED70E088E193E00E945B
:1033F000BC0D20E038EF42E150E067E270E082ED82
:1034000090E00E94A80E20E038EF42E150E067E231
:1034100070E082E291E00E94A80E81ED90E090932E
:103420002503809324032DE130E03093270320937C
:1034300026038FEF9FEF90932B0380932A039093A3
:1034400029038093280370922C0361EA71E088E1DC
:1034500093E00E94161380E090E0892B09F466CE79
:103460000E94E003882309F45FCE0E9400005CCE36
:1034700088E193E00E94AC07A3CC8B819C81681B00
:10348000790B9401261B370BB9017BCF81E0809328
:10349000000194CF60EEE62E67E0F62E06E210E023
:1034A00020E530E044E150E062ED70E088E193E037
:1034B0000E94BC0D20EE37E042E150E067E270E090
:1034C00082ED90E00E94A80E20EE37E042E150E04D
:1034D00067E270E082E291E00E94A80E87ED90E042
:1034E00090932503809324032DE130E0309327034C
:1034F000209326038FEF9FEF90932B0380932A0353
:10350000909329038093280370922C0363E571E064
:103510009ECF61E080E10E94CF0461E081E10E94E2
:10352000CF040E9415056B017C0180913902811145
:1035300065C081E080933902809338023FEF309379
:1035400037021092360295E0909335028093340250
:10355000809134028A6880933402809133028130F2
:1035600009F0C8C0109233020E9415056B017C015E
:10357000809134028093BB0080913B0290913C0289
:10358000A0913D02B0913E02892B8A2B8B2BA1F09A
:103590000E94150500913B0210913C0220913D02D2
:1035A00030913E026C197D098E099F090617170795
:1035B0002807390708F443C08091BC0083FDD8CFA9
:1035C00085EC8093BC000E9415056B017C01809105
:1035D0003902813009F490C080913602863008F0BB
:1035E000ADC080913602A3E1B2E0E1E4F2E090E008
:1035F000981751F12D9121939F5FFACF80913B0253
:1036000090913C02A0913D02B0913E02892B8A2B01
:103610008B2B09F48ACF0E94150500913B02109173
:103620003C0220913D0230913E026C197D098E09C9
:103630009F09061717072807390708F076CF8091EA
:103640003A020E94280680E01092400280933F02D6
:1036500010926E0210926D0290913F028091400292
:10366000981709F46DC08CE093E00E9459062091F0
:103670006D0230916E02F901EE0FFF1FEF59FD4F01
:103680009927918380832F5F3F4F30936E02209361
:103690006D0267EA71E08FE692E00E941613409196
:1036A0006D0250916E02052E000C660B770B8FE6B3
:1036B00092E00E94911267EB71E08FE692E00E9427
:1036C0001613E0916D02F0916E02EE0FFF1FEF599D
:1036D000FD4F40815181052E000C660B770B8FE664
:1036E00092E00E94911264E671E08FE692E00E94FF
:1036F0008212B2CF85EE65CF80913B0290913C0261
:10370000A0913D02B0913E02892B8A2B8B2B09F4AC
:103710005ECF0E94150500913B0210913C02209162
:103720003D0230913E026C197D098E099F090617F2
:1037300017072807390708F04ACF81CF86E053CF13
:1037400064EF71E080E090E00E943A05EE24EA9494
:10375000FE2C0EE110E02AE530E04AE550E063E798
:1037600070E088E193E00E94BC0D23E730E03093E5
:103770002503209324038AE590E090932703809308
:10378000260380EE97E090932B0380932A03909377
:1037900029038093280394E090932C0340916102C5
:1037A00050916202052E000C660B770B88E193E0C6
:1037B0000E9491122AE530E04CE850E063E770E0A7
:1037C00088E193E00E94BC0D23E730E030932503AD
:1037D000209324038FE890E090932703809326039F
:1037E00010922B0310922A0310922903109228039F
:1037F00070922C034091630250916402052E000CDC
:10380000660B770B88E193E00E9491122AE530E085
:103810004EEB50E063E770E088E193E00E94BC0D5E
:1038200023E730E0309325032093240381EC90E0DC
:10383000909327038093260320EE3FEF30932B03D2
:1038400020932A03309329032093280370922C039A
:103850004091650250916602052E000C660B770BB5
:1038600088E193E00E949112F6CD5058BB27AA2719
:103870000E944D1C0C949E1D0E94901D38F00E94C9
:10388000971D20F039F49F3F19F426F40C948D1DF8
:103890000EF4E095E7FB0C94871DE92F0E94AF1D05
:1038A00058F3BA17620773078407950720F079F475
:1038B000A6F50C94D11D0EF4E0950B2EBA2FA02D79
:1038C0000B01B90190010C01CA01A0011124FF27CD
:1038D000591B99F0593F50F4503E68F11A16F040C8
:1038E000A22F232F342F4427585FF3CF46953795C7
:1038F0002795A795F0405395C9F77EF41F16BA0B8C
:10390000620B730B840BBAF09150A1F0FF0FBB1F39
:10391000661F771F881FC2F70EC0BA0F621F731F82
:10392000841F48F4879577956795B795F7959E3FDF
:1039300008F0B0CF9395880F08F09927EE0F979570
:10394000879508950E94B61C0C949E1D0E94971D99
:1039500058F00E94901D40F029F45F3F29F00C942C
:10396000871D51110C94D21D0C948D1D0E94AF1D0A
:1039700068F39923B1F3552391F3951B550BBB279E
:10398000AA2762177307840738F09F5F5F4F220FE3
:10399000331F441FAA1FA9F335D00E2E3AF0E0E8DA
:1039A00032D091505040E695001CCAF72BD0FE2F24
:1039B00029D0660F771F881FBB1F261737074807B8
:1039C000AB07B0E809F0BB0B802DBF01FF27935870
:1039D0005F4F3AF09E3F510578F00C94871D0C9490
:1039E000D21D5F3FE4F3983ED4F3869577956795B3
:1039F000B795F7959F5FC9F7880F911D96958795A5
:103A000097F90895E1E0660F771F881FBB1F6217C3
:103A100073078407BA0720F0621B730B840BBA0B81
:103A2000EE1F88F7E09508950E941B1D6894B11160
:103A30000C94D21D08950E94B71D88F09F5798F0EE
:103A4000B92F9927B751B0F0E1F0660F771F881FA3
:103A5000991F1AF0BA95C9F714C0B13091F00E94BD
:103A6000D11DB1E008950C94D11D672F782F8827C0
:103A7000B85F39F0B93FCCF3869577956795B395E4
:103A8000D9F73EF490958095709561957F4F8F4F53
:103A90009F4F0895E89409C097FB3EF49095809558
:103AA000709561957F4F8F4F9F4F9923A9F0F92F04
:103AB00096E9BB279395F695879577956795B79582
:103AC000F111F8CFFAF4BB0F11F460FF1BC06F5F68
:103AD0007F4F8F4F9F4F16C0882311F096E911C07A
:103AE000772321F09EE8872F762F05C0662371F09B
:103AF00096E8862F70E060E02AF09A95660F771FAF
:103B0000881FDAF7880F9695879597F9089597F9A2
:103B10009F6780E870E060E008959FEF80EC089573
:103B200000240A941616170618060906089500249C
:103B30000A9412161306140605060895092E039416
:103B4000000C11F4882352F0BB0F40F4BF2B11F48A
:103B500060FF04C06F5F7F4F8F4F9F4F089557FDE9
:103B60009058440F551F59F05F3F71F04795880FEB
:103B700097FB991F61F09F3F79F087950895121682
:103B800013061406551FF2CF4695F1DF08C016162E
:103B900017061806991FF1CF8695710561050894DF
:103BA0000895E894BB2766277727CB0197F90895F6
:103BB0000E94EB1D0C949E1D0E94901D38F00E94E7
:103BC000971D20F0952311F00C94871D0C948D1DEA
:103BD00011240C94D21D0E94AF1D70F3959FC1F368
:103BE000950F50E0551F629FF001729FBB27F00DAB
:103BF000B11D639FAA27F00DB11DAA1F649F662700
:103C0000B00DA11D661F829F2227B00DA11D621F4E
:103C1000739FB00DA11D621F839FA00D611D221F08
:103C2000749F3327A00D611D231F849F600D211DEC
:103C3000822F762F6A2F11249F5750409AF0F1F06F
:103C400088234AF0EE0FFF1FBB1F661F771F881FD8
:103C500091505040A9F79E3F510580F00C94871D6C
:103C60000C94D21D5F3FE4F3983ED4F3869577958C
:103C70006795B795F795E7959F5FC1F7FE2B880F7E
:103C8000911D9695879597F90895A1E21A2EAA1B82
:103C9000BB1BFD010DC0AA1FBB1FEE1FFF1FA217FC
:103CA000B307E407F50720F0A21BB30BE40BF50BF9
:103CB000661F771F881F991F1A9469F76095709582
:103CC000809590959B01AC01BD01CF0108950E94A4
:103CD0006F1E332312F48A1B9B0B0C94801EA29F31
:103CE000B001B39FC001A39F700D811D1124911DD0
:103CF000B29F700D811D1124911D08950E946F1EA9
:103D0000B7FF0895821B930B0895EE0FFF1F0590D8
:103D1000F491E02D099481E090E0F8940C94901EC9
:043D2000F894FFCF45
:103D24000100003F013F01EFEF0060C0A028100038
:103D34001018100000000016047603A3036304D4D3
:103D440003B203C6030000000077066C067D124927
:103D5400066D0359064A0600000000C30F76037D72
:103D6400127C12350CCF11460E5F0F8011BC0D6909
:103D74000DC20F4D555445006F6E616C636C696ED6
:103D8400696373000D0A004F5849004D41582037AC
:103D94003020707369004D494E20343020707369AF
:103DA400004E4954004D415820313430207073691D
:103DB400004D494E2031313020707369004D454427
:103DC40000415544494F00456C206461746F206E76
:103DD400756D65726F20002065733A202020000005
:00000001FF
